:020000040000fa
:10000000f03f0020c92c00008f1e00009728000040
:1000100000000000000000000000000000000000e0
:10002000000000000000000000000000171c00009d
:100030000000000000000000171c0000171c00005a
:10004000171c0000171c0000171c0000171c0000e4
:1000500061290000171c0000171c0000171c00007d
:10006000171c0000171c00002d2b0000171c00009f
:100070007d2a00000000000000000000171c0000a6
:10008000171c0000171c000089320000171c00001c
:10009000171c00000000000000000000171c0000fa
:1000a000171c0000171c0000171c0000171c000084
:020000040000fa
:1000b000f8b5c046f8bc08bc9e467047a92c0000a5
:1000c000f8b5c046f8bc08bc9e467047812c0000bd
:020000040000fa
:0800d000681a000001000000a5
:020000040000fa
:1000d800f8b5ce4b1b78002b00d186e2cc4b1b78b1
:1000e800dbb2042b00d94be29b00ca4ad3589f4687
:1000f800c94b1a785b78120213431bb2c74a934262
:1001080000d19ae000dd88e0c54a934200d1e5e0dd
:1001180043dcc44a934200d1a4e0c34a934200d0ce
:1001280018e1c24802f036ffc14802f033ffc14b64
:10013800c02212019b5a9bb2002b0ed00024bd4d49
:10014800bd4f1600295dc9b2380002f023ffab5b32
:100158009bb20134a2b29342f4d8b84802f01aff15
:10016800b44bc02212019b5a9bb2002b00d107e26c
:100178000024b04db04f16002b198022d2009446af
:1001880063441978c9b2380002f004ffab5b9bb234
:100198000134a2b29342efd8f2e1a94a934200d0c7
:1001a800d8e0a84802f0f6fea14802f0f3fea64bfc
:1001b800c02212019b5a9bb2002b0ed00024a24de4
:1001c8009d4f1600295dc9b2380002f0e3feab5b13
:1001d8009bb20134a2b29342f4d8984802f0dafef6
:1001e800994bc02212019b5a9bb2002b00d1c7e148
:1001f8000024954d904f16002b198022d20094466a
:1002080063441978c9b2380002f0c4feab5b9bb2f4
:100218000134a2b29342efd8b2e18c4a934213d090
:100228008b4a934217d08b4a934200d092e08a4b74
:1002380001221a70764b1a70a2e1874b00221a70bd
:10024800734b01321a709be1834b02221a70704b78
:10025800013a1a7094e1804b03221a706c4b0232f7
:100268001a708de17d4802f095fe714802f092fe09
:100278007b4bc02212019b5a9bb2002b0ed000244c
:10028800774d6d4f1600295dc9b2380002f082fe25
:10029800ab5b9bb20134a2b29342f4d8674802f038
:1002a80079fe6f4bc02212019b5a9bb2002b00d1e2
:1002b80066e100246a4d604f16002b198022d20097
:1002c800944663441978c9b2380002f063feab5b08
:1002d8009bb20134a2b29342efd851e1614802f0d7
:1002e80059fe534802f056fe5f4bc02212019b5a3a
:1002f8009bb2002b0ed000245b4d4f4f1600295d9a
:10030800c9b2380002f046feab5b9bb20134a2b220
:100318009342f4d8494802f03dfe534bc0221201e3
:100328009b5a9bb2002b00d12ae100244e4d424f2c
:1003380016002b198022d200944663441978c9b25a
:10034800380002f027feab5b9bb20134a2b29342a5
:10035800efd815e1454802f01dfe11e13e4b1b7830
:10036800dab2012b1fd0022a38d0002a00d007e1c8
:10037800294a137851781b021943394bc0221201bc
:100388009952995a89b23a4801809b5a9bb2802265
:10039800d200934203d91e4b00221a70f0e01c4b86
:1003a80002221a70ece01c4a137851781b02194398
:1003b800204bc02212019952995a89b22c480180c7
:1003c8009b5a9bb28022d200934203d9104b002241
:1003d8001a70d5e00e4b02221a70d1e00e4a13783b
:1003e80051781b021943204bc02212019952995a85
:1003f80089b21f4801809b5a9bb28022d200934247
:1004080038d9034b00221a70bae0c046b106002062
:10041800b0060020d8320000a00600203077000087
:100428003272000030720000317200003820000083
:100438001c200000bc1e0020282000002c200000ea
:100448006472000060200000b406002032770000cb
:100458003377000031770000af0600200820000045
:10046800c02a00204c200000b81200207c20000088
:10047800ac0600207e4b02221a7081e07d4b1b786f
:10048800dab2012b13d0022a21d0002a78d17a4877
:10049800c0231b01c25a92b280231b019c466044b0
:1004a800764903f029f8724b03221a7068e0744801
:1004b800c0231b01c25a92b280231b019c46604490
:1004c8006e4903f019f86a4b03221a7058e06d4818
:1004d800c0231b01c25a92b280231b019c46604470
:1004e800664903f009f8624b03221a7048e0614b31
:1004f8001b78dab2012b0fd0022a19d0002a3fd17b
:100508005d48c0231b01c25a92b25c4902f0f4ff55
:10051800574b04221a7033e05948c0231b01c25ab2
:1005280092b2564902f0e8ff514b04221a7027e0b4
:100538005448c0231b01c25a92b2504902f0dcff52
:100548004b4b04221a701be04a4b1b78dab2012b82
:1005580020d0022a30d0002a10d14748c0231b01de
:10056800c25a92b28023db009c466044434902f0a1
:10057800c3ff01f04dfb3e4b00221a7002f048ff0a
:100588003b4b1b78dbb2042b00d96ce09b003e4a46
:10059800d3589f463a48c0231b01c25a92b28023bf
:1005a800db009c466044354902f0a6ff01f030fbb1
:1005b8002f4b00221a70e1e73248c0231b01c25ab0
:1005c80092b28023db009c4660442c4902f094ffe1
:1005d80001f01efb264b00221a70cfe72b480221a0
:1005e80002f092fb2a4b00221a70f8bd294a002318
:1005f8001380294a1380294a13801e4b1b78032b2a
:1006080002d102f005ffede72048022102f07cfb51
:10061800f7e7184b1b78032b02d102f0f9fee1e74c
:100628001f4b198889b2154802f06efbf5e7114b8c
:100638001b78032b02d102f0ebfed3e7184b198885
:1006480089b20e4802f060fbf5e70a4b1b78032bd2
:1006580002d102f0ddfec5e7114b198889b20748bf
:1006680002f052fbf5e70948022102f04dfbb9e719
:10067800b0060020af060020c02a0020000000209d
:10068800bc1e0020b8120020ec320000a00600209a
:10069800b1060020aa060020a6060020a206002017
:0406a800ac0600207c
:020000040000fa
:1006ac00f0b59db012930b6814900b934b6811919d
:1006bc0004938b680d930b691593cb68089313689f
:1006cc00546806930794069807990022002302f0b9
:1006dc0040fc00280dd10b9b5b073ed408230b9ae2
:1006ec001a400c920d9a09920b9a1a4213d0183395
:1006fc000ae080200006844606990a0007996144a6
:10070c000b00069207932d23089a13700d9b013b47
:10071c00099301230c93079b06995b00c74a5b085e
:10072c0000291cd193421ad1089a129b94460c981a
:10073c00413bc3496044192b00d9c24902f078fff0
:10074c00089802f07bfe0b9b0200009308990d9b0e
:10075c00149801f0cdfe1db0f0bd2b23d4e79342cd
:10076c0002d80cd100290ad0089a129b94460c98f6
:10077c00413bb5496044192be0d9b449dee700226e
:10078c0006980799002302f0dffc0026b04f0028e2
:10079c0000d120e100230393129802f005ffc3b2ad
:1007ac001093049b002b00daebe1109b0a93672b50
:1007bc0012d1049b002b01d10133049365230a93be
:1007cc00039b04331ddb039b049a934219da6623c3
:1007dc000a93039b002b14da049b013304930a9baa
:1007ec00662b0ed1039b002b03da00230026984fb7
:1007fc000393109b672b04d0039a049b9446634489
:10080c000493069a079b0e920f93002334003d002d
:10081c00139322000e980f992b0001f0d0fa01f0df
:10082c0031fb8022120694460e9b1690179118935a
:10083c000f9b63441993189a199b00920193220001
:10084c002b0002f0a1fe80231b06cb1800222900ee
:10085c000e900f9320007f4b01f0b1fa139b040014
:10086c0001331393139a049b0d009342d1d10022b0
:10087c00794b01f01bf80e9a0f9b04000d0002f04f
:10088c0049fb002800d0d5e00e9a0f9b20002900d0
:10089c0002f05afc002806d01698179902f03afc80
:1008ac00c00700d4c6e00698079922002b0000f080
:1008bc0053fd002206900791664b3000390000f082
:1008cc00f5ff069a079b0e900f9102f081fa002813
:1008dc0000d1c7e0039b013303930a9b662b00d026
:1008ec00c2e0049b039d0133049300263700049b54
:1008fc000c9ceb1a1693169b9d4200d0dee0002f49
:10090c0000d11de10026089b1f190a9b3e70652b28
:10091c002dd1159b5d1e089b5e55039bb34202dadd
:10092c005b4203930136039b002b00d011e1159b16
:10093c00eb1a0333002b00dd0be12b236a1e002e78
:10094c0000d002330899023d8b54129b413b192b6a
:10095c0001d845230a93089b59190a9b0b70ac428a
:10096c0002da380002f064fe099b023b0993032370
:10097c000b9a1340022b00d0e2e6099b002b00dc03
:10098c00dee6089802f05afd0c9b834200dcf1e095
:10099c001800089b30219c46099a604402f0b4fd73
:1009ac0000230d93cce626002f00039b0133039309
:1009bc000022284b3000390000f078ff04000d00b5
:1009cc0002000b000698079902f0c3fa0028ead03f
:1009dc000024012523e00390eae7204b039a9a4276
:1009ec0012da002c10d10698079900221c4b00f04b
:1009fc005dff002206900791194b3000390000f082
:100a0c0055ff2c0006000f0030003900114b00225e
:100a1c0001f0d5f906000f00039b013b0393320054
:100a2c00069807993b0002f094fa0028d5d1b3e65a
:100a3c000623c2e60024002535e7c0460000f07fff
:100a4c00683300006c330000703300007433000016
:100a5c000000f03f0000244000001440d4feffffd3
:100a6c00000050430e960f970a9d653d6b1e9d41ed
:100a7c00039b6d421d4038e7002f0ad1002d08da88
:100a8c002e23089a139901345354099b0137013bc7
:100a9c000993321923009446302102e0089ad1546c
:100aac0001336345fad1099a3419961b089a3030f0
:100abc00d054731e01340026099320e0119b13942b
:100acc001b69053ba34200d819e70e9a0f9b0698a9
:100adc00079901f074f901f0d5f90490059102f031
:100aec0019fb092800dd092010230b9a134003433e
:100afc00c2d1109b672bbfd1002dbdda01368022ed
:100b0c000e980f9912069446069b013d1a93079b6b
:100b1c0063441b931a9a1b9b00920193049a059ba6
:100b2c0002f032fd80231b06cb18069007930e981b
:100b3c000f990022174b01f042f90e900f91dae653
:100b4c000b9bdb0600d4dde62e23089a13550134eb
:100b5c00d8e603980a2101f045fb089b3031013d92
:100b6c00595503980a2101f0f3fa099b0390013bb4
:100b7c000993d8e6089b09991a5c5b181a5401383a
:100b8c0002e7109b672b00d152e70a9306230493cc
:080b9c0022e6c04600002440df
:020000040000fa
:100ba400f0b599b012930b68cf680a934b6816900e
:100bb4000e938b680b930b69119313685468069317
:100bc4000794069807990022002302f0c6f900282a
:100bd4000ed10a9b5b072ed408230a9a0a991a405d
:100be40005920b9a194213d018333b7013000ce092
:100bf40080200006844606990a00079961440b0088
:100c0400069207932d233b700b9b5a1e01230593d9
:100c1400079b06995b005b0800290ed1af4883420d
:100c24000bd1129b059a413bad4cae49b818192b18
:100c340011d921000fe02b23e5e7a848834202d80d
:100c440018d1002916d0129b059a413ba64ca749fe
:100c5400b818192bedd802f0effc200002f0f2fbdb
:100c64000a9b0200009339000b9b169801f044fc88
:100c740019b0f0bd059b0598591c30233b54129bb9
:100c8400413b0f930f987823192800d8203b0598ef
:100c94007b540230931e059009930022069807990d
:100ca400002302f055fa002800d16de10023904c96
:100cb400089302930394182310930e9b002b00dbdc
:100cc40010930026029c039d109b01331793069af0
:100cd400079b0c920d930c980d9922002b0001f0a8
:100ce40072f801f0d3f822002b001490159100f053
:100cf400e1fd02000b000c980d9902f051fc7d4bb4
:100d04000c900d9100222000290000f0d3fd0e9bd1
:100d140004000d000136002b07da0c980d9900220f
:100d2400002302f015fa002804d1179b9e42d2d169
:100d3400109e01360022200029006f4b00f0bafdfe
:100d440004000d0002000b000c980d9902f005f947
:100d5400002800d01ee10c980d9922002b0002f00f
:100d6400f7f9002806d01498159902f0d7f9c007ae
:100d740000d40fe10698079922002b0000f0f0fa46
:100d840006900791079b069a5b005b08002a03d133
:100d9400524a934200d144e7119b059a053b1493b0
:100da400934200d83de100257342140016001793c6
:100db40010950c95029a039b0698079901f003f885
:100dc40001f064f81290139102f0a8f9031e00d008
:100dd400e3e00c9a002a00d1dfe00135029a039b7c
:100de4001298139900f066fd02000b00069807990b
:100df40002f0d6fb002206900791029803993d4b1e
:100e040000f058fd0c9b179a013b029003910c9340
:100e1400934203d0149b26009c42cbd3109b002bff
:100e24001ad1002d00dcfde00e9b002b00dcf9e064
:100e34000a9bdb0700d5f5e02e2230213b191a70fe
:100e44002a19ba18597001339342fbd16419ed433e
:100e5400099b0134eb18099300263b191e70029379
:100e6400119b5d1e089b7e55b34202da5b420893d8
:100e74000136089b002b00d0bce0119beb1a013318
:100e840000d1b7e02b236a1e002e00d00233bb54de
:100e94000f9a7023023d192a00d8203b79190b7050
:100ea400ac4202da029802f0c7fb03230a9a134009
:100eb400022b11d1099b9c1e002c0ddd380002f081
:100ec400c1fa059b984200dba4e0f8182200302107
:100ed40002f01efb00230b933800bfe60000f07ff6
:100ee4006c3300006833000074330000703300007a
:100ef4000000f03f0000b03f00002040089b029437
:100f0400039501330893029a039b1000190000f023
:100f140027fa04000d0002000b000698079902f05e
:100f24001cf80028ead0029a039b0698079902f05d
:100f340014f8002800d1bee60298039900223d4b24
:100f440000f0b8fc0022002302f002f900280fd0c0
:100f5400029803990022384b00f0acfc0022029066
:100f6400039106980799344b00f0a4fc069007916e
:100f7400029803992f4b002200f09cfc089b0290de
:100f84000391013b0893cee700232c4c0890029375
:100f94000394b8e700240025ece6109a002a0ad14d
:100fa4000c9a002a07d02e22ba55099a0134013a24
:100fb40009920122109230222e1901e03a5501348f
:100fc400b442fbd11800099a5730551b092b01dc98
:100fd400303318000f9b192b06d820230343613ba1
:100fe400192b01d802f0ebfa6b1e741c0025b855be
:100ff4000993f3e608980a2101f0f8f8013d30312d
:10100400089879550a2101f0a7f8099b0890013b3b
:1010140009932ee7099b3a5c023bfb181a540138ea
:101024004fe7059c0a9bdb0600d415e72e233b55ae
:10103400013411e70000e03f000050430000f03f9e
:020000040000fa
:101044000023f0b51600b1b0039007910493079df7
:101054002b78002b00d1cfe001235b420c9310ab23
:1010640000240e9380230b940d940f932b5d002b7f
:1010740001d0252b30d1002c06d029002200039862
:101084002d1902f0d5f80795079b1a78252a00d068
:10109400a7e001331800002105930793243a03784d
:1010a4002b2b25d02dd8202b25d0232b26d000293f
:1010b40000d007902a2b2cd001f06cfe01250d9056
:1010c4000020079a11000b780132303b092b64d9b8
:1010d40000282dd007912be00134c7e701230b9999
:1010e4000b430b9311000130d9e702230b99f7e767
:1010f40004230b99f4e708230b99f1e710230b99c8
:10110400eee72d2bead0302befd00029d4d0079076
:10111400d2e7336801301a1d1b68079032600d93c3
:10112400002b05da01220b995b424a400b920d9386
:101134000b9bda0702d5022293430b93079b1a7881
:101144002e2a0dd100270c975a785d1c07952a2a60
:1011540025d10233079333681a1d1b6832600c9340
:1011640007a801f0c1ff079d0700287802f020fac4
:10117400252800d1d5e06138172800d9dbe002f03a
:10118400dbf91fdab63ea6a6a6da3edadadada9c8c
:101194005e7fdadac6da4edada6e280092e72800e1
:1011a40001f0f8fd01210c902a0013780135303b41
:1011b400092b03d9002fd3d00792d1e70f00f3e70f
:1011c4003200390008a801f03fff002800d17be07d
:1011d4006b1c079303982b7808aa0ba9fff7e0fc74
:1011e4002418049b1c19a34200dcb0e04f22594b85
:1011f4001a6001235b420493049831b0f0bd3300bc
:101204000122390008a800f073fd00285cd00135e4
:10121400039808aa0ba9079500f096fee0e73300af
:101224000022390008a800f063fd00284cd00135e5
:10123400039808aa0ba9079501f0a2fcd0e7330094
:101244000022390008a800f053fd00283cd00135e5
:10125400039808aa0ba9079501f0e4fac0e7330044
:101264000022390008a800f043fd00282cd06b1c94
:1012740007932b78039808aa0ba900f0c4fbafe7e7
:1012840033000022f02108a800f032fd00281bd012
:10129400089b099a0135079513430cd12e4d28005c
:1012a40002f0d0f8290002000b9b00930d9b0398d9
:1012b40001f022f994e77823dce7049b39001a193a
:1012c40008a8330001f054f90135079589e7320085
:1012d400390008a801f0b8fe0028f5d06b1c07936c
:1012e40003982b7808aa0ba9fff7def978e7802f7b
:1012f400ead1336801351a1d1b68326008aa1370dd
:101304000123079503980ba901f090fc68e7802f4f
:10131400dad132680135131d336012680023079552
:10132400f0e7802fd0d10b9b0135009301220b49ac
:101334000d9b0795bbe7059b0122079300235242af
:101344000c9206490b930d9300930232afe7049479
:101354007de6c0469c060020603300006633000032
:020000040000fa
:10136400f0b40125ed070f005f405ad48b4200d141
:10137400824205d950404240504059404b40594068
:101384004e18760ddf187f0d3bd0741c640529d0f0
:10139400f41b352c26d80e0ddb022b43db0ac902c5
:1013a4002943c9121700202c1ed2e741e2405740be
:1013b400e3415a40a340e3405a4000248018594175
:1013c4000ad3b21c520521d0c207012f6241170073
:1013d4004008cb0718434908013636054208af4197
:1013e40060417141f0bc7047203c06d01f00e741ca
:1013f400e3405f400024012a6741c0186141ebd3f8
:10140400dfe7002eeed129400020ebe7013631055d
:101414000020e7e7e742e5d10020c143090dc904f4
:10142400e0e76b400e00871a9e4104d26e40c01b59
:10143400b141d21973414e18df18ac0ae642e9d221
:10144400760d7f0d31d0f41b362ccbd8b4460e0d5f
:10145400db022b43db0ac9022943c90a012c32d817
:1014640004d1d4075208df073a435b08ef0a644209
:10147400904199411ed0002239424dd12419404156
:1014840049410124394204d1013400184941394207
:10149400fad06246a24204d9361b013e36058919a8
:1014a400a0e7f10ac90700209ce736429ad1002040
:1014b400002197e70200224394d0b842ded2010013
:1014c40020002024e3d1202c13dd203ce24117002e
:1014d400a240e2405740e3415a40a340e3405a400f
:1014e400012fbf410137174300227c4298419141ab
:1014f4000ce01700e741e2405740e3415a40a34063
:10150400e3405a407c429041994100220f0303d2a8
:10151400013e241940414941013e36054708ac418a
:0815240050417141f0bc704719
:020000040000fa
:10152c00700600201c0000000000000000050020d8
:10153c00c000000000000000100600206000000049
:10154c00000000008c0600200800000000000000d5
:10155c00a80600200200000000000000a4060020e5
:10156c000200000000000000ae0600200100000098
:10157c0000000000a2060020020000000000000095
:10158c00a60600200200000000000000aa060020b1
:10159c000200000000000000000400200001000018
:1015ac0000000000af060020020000000000000058
:1015bc00c4360020010000000100000030000000d3
:1015cc00000000200004000000000000a006002025
:1015dc000200000000000000ac0600200200000029
:1015ec0000000000b1060020030000000000000015
:1015fc00b4060020020c0000040000008000ff0074
:10160c00ff00ff00ff00038000ff00ff00ff00ff52
:10161c0000ff00ff00ff00ff00090000b8120020cf
:10162c00020c0000040000008000ff00ff00ff001f
:10163c00ff00038000ff00ff00ff00ff00ff00ff22
:10164c0000ff00ff00090000bc1e0020020c00007f
:10165c00040000008000ff00ff00ff00ff0003807b
:10166c0000ff00ff00ff00ff00ff00ff00ff00ff76
:10167c0000090000c02a0020020c00000400000039
:10168c008000ff00ff00ff00ff00038000ff00ff51
:10169c0000ff00ff00ff00ff00ff00ff000900003b
:1016ac00940600200400000000000000c00500208b
:1016bc005000000000000000980600200800000008
:1016cc000000000000000000000000006666666676
:020000040000fa
:1016dc00f0b5de4657464e464546e0b58346904645
:1016ec00002937d0002835d0604a526807242000e2
:1016fc0010408446144243d14246002a00d196e061
:10170c005a4a127e520705d5584a0425946a147e0b
:10171c002c42fbd1554a548b04252c435483147e04
:10172c007c352c431476002291468b4201d95a1aef
:10173c0091466246002a04d05b0849084a46520882
:10174c0091464a4d01242a7e2242fcd000220027d9
:10175c00464c2de00022002b5ed04246002a62d07f
:10176c00424a52680724200010408446144200d19b
:10177c0070e0002900d073e0da0705d500224be0b9
:10178c00ca0752d4002bf7d15a46541ea2415242da
:10179c001140b1e77d0058462d5aed05ed0da562bf
:1017ac0001370426002b10d10126257e3542fcd0b2
:1017bc008f421ed06546002decd15846c55da56202
:1017cc000137eee72a4da5621be0257e3542fcd0a1
:1017dc00a56a9a42ecd26646002e03d14646b55411
:1017ec000132e5e75600ed05ed0d4046355201326c
:1017fc00dee74d46002d09d06546002de2d1ff35c0
:10180c00a56201256d42aa46d144cae717490222b6
:10181c000b7e1342fcd001221000f0bcbb46b2463a
:10182c00a946a046f0bd0022f6e70022f4e70f4bd4
:10183c001a7e0023520700d566e70c4b5a8b042402
:10184c0022435a831a7e7c3422431a7600230022c8
:10185c0091466ee75a46002a00d04de761464fe7a5
:10186c00ca0700d488e70022d6e7c0460008004229
:04187c00ff01000068
:020000040000fa
:1018800008d1002806d1f54204d801d3002a01d19d
:101890006d0d09d10020c143090dc904f0bdf9d176
:1018a0001242f7d1640df5d00020c1434905490823
:1018b000a6e000206146f0bdf0b50127ff070e004d
:1018c0005e403e40b446be0a4c18dd18f442d7d202
:1018d000f542e4d2640decd06d0dead06419c90272
:1018e0003943460dc0023143db023b43db0a10b4ef
:1018f0008e4685b297b26f43140c6c433e0ca4190c
:10190000260c2404bfb227439cb26c43a419190cc3
:101910006943250ca4b249190d04090c6419000c83
:1019200095b245433e0c76193743bfb2360c150cc1
:101930004543ad19a6b2240cad192e0437432e0c25
:1019400036199db24543ad19acb22e0c89191d0c48
:1019500045436d182e04290c3443704680b295b26d
:1019600045433e0c76193743bfb2360c150c454340
:10197000ad19a6b2ad19240c2e0437432e0c36191e
:101980009db24543ad19acb22e0c89191d0c4543cf
:101990006d182e043443290c75462d0c90b2684303
:1019a0003e0c80190604bfb23e43070ca0b23f189c
:1019b000120c6a43d019020c80b2240ca4189ab2fb
:1019c0006a43121914042043120c89181b0c6b4330
:1019d000c91810bc01273d05294203d1b619404161
:1019e0004941013cff077d0d013d641b0bdb6d0090
:1019f000ac4209da240500254208be416841614134
:0a1a000066463143f0bd54e74ee79f
:020000040000fa
:101a0a00f0b58fb00c934b680d0008938b681600e5
:101a1a000993cb680f680393089b0b90002b43db59
:101a2a0002239f4310233a001a400d92099a049206
:101a3a001f4206d033687268134302d0099b023be7
:101a4a00049308233b400a935a1e9341049a2c6933
:101a5a00d31a04933368039a06937368013c079375
:101a6a0000231355049b0593012c20dc0d9b002bae
:101a7a0050d10a9b002b03d02023039a013c135513
:101a8a002a69039b013a19190b98099b121b0097a3
:101a9a0000f02ffd0b9b5b68db0503d56b68984252
:101aaa0000da18000fb0f0bd01230893bae7069bcd
:101aba00079a13430ad1049a089b9b1a059a9b1802
:101aca00002b03dc002ad1ddbb07cfd50f23069af2
:101ada00013c134018005730092b01dc3033180041
:101aea000c9b413b192b06d820230343613b192b3e
:101afa0001d801f061fd039b1855059b013b059335
:101b0a00079b1a07069b1b091a43079b06921b0988
:101b1a000793a9e70cce1343abd0039b0c9a1b196e
:0e1b2a00013b1a703023039a023c1355a1e7c9
:020000040000fa
:101b3800f0b506000f0015001c0085b08b4263d875
:101b480001d1824260d82100280001f0a9fc3900a7
:101b58000090300001f0a4fc009b21001b1a1a0021
:101b68002800039301f090fc00900191b94245d8f8
:101b780001d1b04242d8009b019c01200021039a68
:101b8800f61aa74101f080fc04000d00039b002b0e
:101b98002bd0019b009adb0750081843019b59087a
:101ba800039b9c46b9422cd801d1b04229d83200b7
:101bb8003b00121a8b41012692185b410027b61888
:101bc8005f4101235b429c446346002bead130000d
:101bd8003900039a01f04cfc039aa4197d410600d0
:101be8000f0001f051fc241a8d410a9b002b01d0f3
:101bf8001e605f602000290005b0f0bd00240025ac
:0e1c0800c4e7b6197f41dce700240025ede7b4
:020000040000fa
:021c1600fee7e7
:020000040000fa
:101c180070b5314b1b78dab2012b21d0022a3dd0a6
:101c2800002a1cd12d4cc0263601a25b92b22c4d45
:101c38002100280001f060fca25b92b28023db0047
:101c4800e818e11801f058fca25b92b280231b014e
:101c5800e818e11801f050fca35b9bb2ab5370bdd0
:101c6800204cc0263601a25b92b21d4d21002800ef
:101c780001f042fca25b92b28023db00e818e11875
:101c880001f03afca25b92b280231b01e818e1182c
:101c980001f032fca35b9bb2ab53e0e7124cc026c9
:101ca8003601a25b92b20e4d2100280001f024fcff
:101cb800a25b92b28023db00e818e11801f01cfc5b
:101cc800a25b92b280231b01e818e11801f014fc12
:101cd800a35b9bb2ab53c2e7b2060020c02a002028
:0c1ce800b4060020bc1e0020b812002032
:020000040000fa
:101cf40010b50400902911dc00207f2928dd8039eb
:101d04000800102910d801f017fc31313d0f110fd4
:101d14000f0f240f0f0f0f0f0f0f3d00c0294bd0d3
:101d2400f02949d0a02928d0002011e01968002a00
:101d340007d00a1d1a6000228b5e2360db176360e4
:101d440005e0081d18600b689bb2236062600120e7
:101d540010bd1968002a04d00a1d1a600023cb564e
:101d6400ebe7081d18600b68dbb2eee71968002a80
:101d74001ed00a1d1a600b68dfe71a68111d19606e
:101d84001368dae707201968002a09d00918814383
:101d94000a0008321a600a684b6822606360d6e75a
:101da400ca1d824311000831196053681268f4e7b0
:101db400081d18600b68c8e71a68111d19601368bc
:061dc40023600023bbe7d1
:020000040000fa
:101dca00f0b40125ed070c005c402c40a446ae0a95
:101dda004c18df18f4423dd2f74245d2640d4cd07c
:101dea007f0d3cd0e41bc9022943cf0adb022b43f7
:101dfa00db0a0600b61a9f4104d2013cb6197f419c
:101e0a00b6185f416812800d241838dd0018844224
:101e1a0025d8e80c0021b6197f41b61a9f4103d391
:101e2a0040414941f7d304e0b6185f4100184941df
:101e3a00f1d32405b6197f41b61a9f4105d337431a
:101e4a00c20717430022012f5041614162461143e4
:101e5a00f0bc70470cd100280ad1f74208d2002002
:101e6a00c143490d0905f1e7002a01d1f74206d01d
:101e7a000020c143090dc904eae77f0df8d000200c
:041e8a006146e5e7e1
:020000040000fa
:021e8e00fee76d
:020000040000fa
:101e90004b005b0d284af0b50d00591e040091421d
:101ea00039d8264a9e1825d420002900332e20dc5c
:101eb000234a9b1826d4234ada4013002700214adc
:101ec0009f43f24038002f00234097432a403900b7
:101ed00013430ed0002f0cda3400203c25d480258b
:101ee0006d03e5402a0080246403f4402300801839
:101ef0005941f0bd002d02db00200021f9e7002050
:101f00001149f6e720230f4a9b1b9a4001235b42ad
:101f1000f3401343d2e720002900002be9d100222f
:101f2000e90fcb0710001900e3e720248025a41b4c
:101f30006d03a5402a00d6e7fd07000001fcffff66
:0c1f4000e1fbffffffff0f000000f0bfff
:020000040000fa
:101f4c00f0b54b6889b004930b6805000c009c46f7
:101f5c008e68cf68079310685168cb0f05930029e2
:101f6c0044da0b000200002150429941049b002be3
:101f7c0009db0222634693430793059b002b02d196
:101f8c00079b5a0723d5731e07aa02920a220093b5
:101f9c0001920b000200200000f021fb059b002b9e
:101fac0019d02d2301383b542269079b013a121a90
:101fbc00391800932800330000f09afa6b68db059f
:101fcc0003d56368984200da180009b0f0bd1b070e
:101fdc00db0ff31ad8e7079b5a0702d52b230138de
:101fec00e1e71b07e0d520230138dce7049b002b3d
:041ffc00bfdac5e79c
:020000040000fa
:102000005253540d0a00000052454144494e4720a6
:1020100042554646455220300d0a000058204441a2
:102020005441203a2000000025642c000d0a59205c
:1020300044415441203a200052454144494e4720f2
:1020400042554646455220310d0a00005245414452
:10205000494e472042554646455220320d0a00005f
:1020600052454144494e4720444953504c41592020
:102070004255464645520d0a00000000434f4d4d63
:10208000414e44204e4f54205245434f474e495aeb
:1020900045440d0a000000000d0a524f54415259a8
:0f20a000204e554d424552203a2025640d0a002e
:020000040000fa
:1020b0001f4b00229a619a8c80218a439a841900ce
:1020c0001022cb681a42fcd01a4b1b689b0e3f2b88
:1020d0002cd09b02802292001343154a9362110078
:1020e0001022cb681a42fcd0114b02229a841900ac
:1020f0000e32cb681a42fcd00f4b104a5a601a00bd
:1021000053785bb2002bfbdb0b4b0d4a5a800d4a18
:102110005a800d4a5a800d4a5a800d4a5a800d4bfa
:102120000d4a1a62024b00221a627047203bd0e728
:102130000008004024608000000c004000070100ff
:10214000054000001440000015400000174000004a
:0c2150001b400000000400402c080100af
:020000040000fa
:10215c00002941d010b404004c40a44601230022b5
:10216c00002900d54942002800d5404288422cd392
:10217c0001242407a14204d2814202d209011b018d
:10218c00f8e7e400a14204d2814202d249005b008c
:10219c00f8e7884201d3401a1a434c08a04202d3f4
:1021ac00001b5c0822438c08a04202d3001b9c0835
:1021bc002243cc08a04202d3001bdc082243002897
:1021cc0003d01b0901d00909e3e710006446002c79
:1021dc0000d5404210bc704701b5002001f030fa28
:1021ec0002bdc0460029f7d003b5fff7b3ff0ebc04
:0821fc004243891a1847c0464e
:020000040000fa
:1022040010b51e4a137801210b43137053785bb247
:10221400002bfbdb194900238b6180239b04cb61da
:10222400db0acb60164b10221a721a7520201a543e
:102234000c301a540c301a540c301a540c301a54f2
:102244000c301a540c301a540c301a540c301a54e2
:102254000c301a540c301a540c301a540c300e240e
:102264001c540c301a540b780e3a13430b700a00aa
:1022740053785bb2002bfbdb10bdc0460018004056
:042284000005002031
:020000040000fa
:10228800f8b51d4b1b7d002b34d01b4a9368516851
:102298001a4a127ed2071ad5994218d91749072522
:1022a800154f3e003c000ae03a685800825a0a85f9
:1022b800013360680a7ed20709d5984207d94a686f
:1022c8002a40012af0d03268d25c0a85f0e70a4a2f
:1022d800936052689a420dd8074b00221a755a60cb
:1022e800064a01211175db68002b03d0024b1869df
:1022f800db689847f8bdc04610060020001400426d
:020000040000fa
:10230800f8b51d4b1b7d002b34d01b4a93685168d0
:102318001a4a127ed2071ad5994218d917490725a1
:10232800154f3e003c000ae03a685800825a0a8578
:10233800013360680a7ed20709d5984207d94a68ee
:102348002a40012af0d03268d25c0a85f0e70a4aae
:10235800936052689a420dd8074b00221a755a604a
:10236800064a01211175db68002b03d0024b18695e
:10237800db689847f8bdc04640060020000c0042c4
:020000040000fa
:1023880070b51a4b1b78002b2ad0194b1b88194a99
:102398009b181b78012b24d0174b80229a61144c70
:1023a80023889bb2154de85cc0b22388eb188022c5
:1023b800d200944663441978c9b200f05ff82388c4
:1023c80001339bb22380c0231b01eb5a22889bb2a6
:1023d800934202d8064b00221a80044b00221a703e
:1023e80070bd054b80225a61d9e7c046ae06002071
:1023f800aa060020b40e002000440041b4060020c4
:020000040000fa
:1024080010b5174b1b78002b20d0164a00231380d9
:10241800154a1380154a1380154b1b6a1b0516d5e0
:10242800144c207801300321fff7defec9b2217079
:10243800104b1978c9b2104800f0acfdfff7e8fb63
:102448000e2001f08bf8064b00221a7010bd094cc3
:10245800207802300321fff7c7fec9b22170e7e7f1
:10246800b3060020aa060020a6060020a206002027
:0c24780000440041b20600209820000043
:020000040000fa
:1024840070b50d00830018180002ff21fff764fee9
:10249400154bc418a4b2a90049194b01c9188800e6
:1024a400ff21fff759fed723db00c3189bb20f4867
:1024b400220a10210a43027044700d4c190a70223a
:1024c40052420a43227063700a4d8026f6006e6100
:1024d400022101f081f8ae616e610221200001f059
:1024e4007bf8ae6170bdc0468c050000a4060020d8
:0824f400a8060020004400418d
:020000040000fa
:1024fc00f0b589b014000e9a1d0002910123110051
:10250c001940019003911a4201d1a5420ad8220028
:10251c000299019800f088fea54203d825002800f6
:10252c0009b0f0bd2e1b37003200102e00d910223e
:10253c00202104a800f0e8ff0f2f0ed80f220198dd
:10254c00324004a900f070fe039b002be7d122005f
:10255c000299019800f068fee1e71022019804a9a5
:08256c0000f062fe103fe7e7fa
:020000040000fa
:1025740010b50400902911dc00207f291bdd80396f
:10258400080010290ed800f0d7ff0f0f250d170de6
:102594000d0d1e0d0d0d0d0d0d0d2500a02903d0e3
:1025a400c02901d0002006e01968081d18600b68d6
:1025b40023601a60012010bd1968081d18600b689b
:1025c40023601a80f6e71968081d18600b682360f9
:1025d4001a70efe71968081d18600b6823601a6009
:0625e400d2175a60e6e781
:020000040000fa
:1025ea00f7b5040019000a9ee36867680093336828
:1025fa00100001932369013b1c00002f00da012718
:10260a000022009dea540123089d002c03dc002bc4
:10261a001cd02000febd02000a4309d1089aba1a4a
:10262a005219002a04dc002df1dd019a9207eed539
:10263a00099b099adb1700f02efc8c4600991300bf
:10264a00013c30320a55013d6146dee7102233680b
:06265a0093433360dde74d
:020000040000fa
:1026600070b5041e2fd0194b1b7d0020002b29d1e3
:10267000164b1c60596001221a755868144b1b7e5a
:10268000db0716d5002817d000231149072601259e
:1026900007e0e25c0a8501330a7e2a420bd09842a9
:1026a0000ad04a683240012af3d15a00a25a0a8558
:1026b000f1e7002000e01800044b9860044b012271
:1026c0009a75012070bd0020fce7c046100600206e
:0426d00000140042b0
:020000040000fa
:1026d40070b5041e2fd0194b1b7d0020002b29d16f
:1026e400164b1c60596001221a755868144b1b7ee6
:1026f400db0716d5002817d000231149072601252a
:1027040007e0e25c0a8501330a7e2a420bd0984234
:102714000ad04a683240012af3d15a00a25a0a85e3
:10272400f1e7002000e01800044b9860044b0122fc
:102734009a75012070bd0020fce7c04640060020c9
:04274400000c004243
:020000040000fa
:1027480010b5194b2c229b5c002b18d0164bda695c
:102758001b6a934213d2144b986a14490a8d92b299
:102768001b6a4c6807212140012909d00e49896953
:10277800ca5401330c4a1362d2699a4205d010bd7b
:10278800094989695c006252f3e7074b00222c2152
:102798005a54da61054a583111755b6a002beed03c
:1027a800014b5b6a9847eae71006002000140042d4
:020000040000fa
:1027b80010b5194b2c229b5c002b18d0164bda69ec
:1027c8001b6a934213d2144b986a14490a8d92b229
:1027d8001b6a4c6807212140012909d00e498969e3
:1027e800ca5401330c4a1362d2699a4205d010bd0b
:1027f800094989695c006252f3e7074b00222c21e2
:102808005a54da61054a583111755b6a002beed0cb
:10281800014b5b6a9847eae740060020000c00423b
:020000040000fa
:10282800f0b50c004968236887b00600a768e5681a
:102838000593002902db02218b43059305a9536800
:10284800126802910821200001910097fff7c9fe44
:10285800059bdb0602d5302301382b54059b1b074b
:1028680002d5202301382b542269059b013a121afc
:102878002918009330003b00fff73cfe7368db0526
:0e28880003d56368984200da180007b0f0bd6f
:020000040000fa
:02289600fee75b
:020000040000fa
:1028980010b5174b9022d2001a6047224021995454
:1028a800463a08315a5401315a54002001315854db
:1028b80048394b24195503341a5502341a55023431
:1028c8001a5504341a5502341a55323298540132c2
:1028d800363c9c540132985402329854013299542f
:1028e80001329954023299540132995410bdc046ac
:0428f8000044004157
:020000040000fa
:1028fc00f0b59bb004000d00160000214c2207a877
:10290c001f0000f001fe01235b4202930433ff33ee
:10291c000393002c00d101ac0023049405959d4237
:10292c0000d06b1e0693002d06da4f220120084bb7
:10293c0040421a601bb0f0bd002d01d00023237063
:10294c003a00310002a80894079400f083fdf1e7e7
:04295c009c060020b5
:020000040000fa
:10296000f8b50024144d154e03e037610134102ce6
:1029700020d063001b199b00eb181b7adbb2e1b27d
:102980008b42f3d133690127a7401f42eed00a4999
:1029900063001b199b005b58002be6d00800630006
:1029a00019198900411849681b199b001b58080018
:1029b0009847dae7f8bdc04600050020001800403f
:020000040000fa
:1029c00070b5bff35f8f62b6134bc12189005a58af
:1029d000ff26b243c0252a435a5010221a60c22053
:1029e00080001a580d4c2240c02109040a431a5095
:1029f0008022d2001a6004301a58b2432a431a5077
:102a0000802252011a6004301a5822401143195092
:102a10008022d2021a6070bd00e100e0ffff00ffdb
:020000040000fa
:102a200000230e4a10b513600d4a13600d4a13605f
:102a30000d4a13600d4a13600d4a5362136101334e
:102a4000936000f00cfc00f00afc0a4c0a4b9c421c
:102a500000d310bd08cc9847f8e7c0469806002080
:102a6000cc050020c8050020c0050020c4050020ba
:0c2a7000d0050020bc000000c0000000e9
:020000040000fa
:102a7c0010b5144b9b7d002b16d0124a137edbb283
:102a8c00927d52b2002a10db0e4a137edbb2927d8d
:102a9c00d20701d5db070ed40a4a137edbb2927d36
:102aac00520701d55b0709d410bd5bb2002bebdae2
:102abc0000f0b0f9e8e7fff7e1fbede7fff73efeca
:082acc00f2e7c04600140042cd
:020000040000fa
:102ad400114b124a1a60124a9a81c02292025a6019
:102ae4001a00d369002bfcd10b4a136802210b4353
:102af4001360d369002bfcd10a4b00229a61da617e
:102b04001a622c215a545a621a605a609a601a75d1
:102b1400da60da857047c046000c004204012040a8
:082b24005bb1ffff4006002039
:020000040000fa
:102b2c0010b5144b9b7d002b16d0124a137edbb2d2
:102b3c00927d52b2002a10db0e4a137edbb2927ddc
:102b4c00d20701d5db070ed40a4a137edbb2927d85
:102b5c00520701d55b0709d410bd5bb2002bebda31
:102b6c0000f078f9e8e7fff7c9fbede7fff71efe89
:082b7c00f2e7c046000c004224
:020000040000fa
:102b8400f0b50c004968236887b00500a768e668bb
:102b94000593002902db02218b43059305a95368a1
:102ba400126802910a21200001910097fff71bfd92
:102bb4002269059b013a121a3118009328003b0040
:102bc400fff79afc6b68db0503d56368984200da6b
:062bd400180007b0f0bd7f
:020000040000fa
:022bda00704742
:020000040000fa
:102bdc00114b124a1a60d22252429a81c02292029e
:102bec005a601a00d369002bfcd10b4a13680221de
:102bfc000b431360d369002bfcd1094b00229a6163
:102c0c00da611a622c215a545a621a605a609a601c
:102c1c001a75da60da85704700140042040120400e
:042c2c00100600206e
:020000040000fa
:102c3000f0b50e0087b0039015001049072204a8d4
:102c40001c0000f05dfcb368776802933668002dc5
:102c500000d104ad002c03d1280000f0f5fb0400e6
:102c6000002f02dbbc4200d93c0022002900029b5d
:102c700003980096fff742fc07b0f0bd78330000e0
:020000040000fa
:102c800010b5064c2378002b07d1054b002b02d042
:102c9000044800e000bf0123237010bd700600202f
:102ca0000000000000000000044b10b5002b03d012
:102cb0000349044800e000bf10bdc046000000000a
:082cc000740600200000000072
:020000040000fa
:102cc80010b50a4b98470a4b984700f09ff9094bf3
:102cd800ff229343084a9360084b9847084b98474c
:102ce800084b984700f0e4f9fee7c046db2b0000ec
:102cf800db2b00000000000000ed00e0212a0000ae
:082d0800db2b0000db2b0000b7
:020000040000fa
:102d100070b504000d00002815d00c4b2c229b5cd4
:102d20000020002b00d070bd00f06efa074b9c61b4
:102d3000dd6100221a622c2101205854da85044bef
:102d400084329a75efe70020ede7c0464006002088
:042d5000000c004231
:020000040000fa
:102d54000d4b01221a801a00d37b5bb2002bfbdbe4
:102d6400094b60221a80094a1a833b229a73084a43
:102d74000021116001225a7312025a811a00d37b76
:102d84005bb2002bfbdb7047002c0042af04000059
:042d94008c06002089
:020000040000fa
:102d9800030010b51a78202a0ad01100093904292d
:102da80006d92b2a06d000212d2a05d1012102e0bf
:102db8000133efe70021013300200a2402e06043d9
:102dc8000133801a1a78303a092af8d9002900d133
:042dd800404210bda8
:020000040000fa
:102ddc0030b401256d054c00e54215d85c00e54288
:102dec0012d80c001c436400044314430fd005d2ca
:102dfc0082428b418041013030bc704790429941f6
:102e0c008041013030bc7047002030bc704701203d
:042e1c0030bc70470f
:020000040000fa
:102e200010b50d4b5a8b0723110019401a4200d1df
:102e300010bd0a4ce18500f0d1f9074b84221a75c8
:102e40002c230022e254636a002bf1d0034b986ad2
:102e50005b6a9847ece7c046001400421006002069
:020000040000fa
:102e600010b50d4b5a8b0723110019401a4200d19f
:102e700010bd0a4ce18500f0c7f9074b84221a7592
:102e80002c230022e254636a002bf1d0034b986a92
:102e90005b6a9847ece7c046000c00424006002001
:020000040000fa
:102ea000002b11d1002a0fd1002900d1002802d017
:102eb0000021c943080007b4024802a1401802904b
:102ec00003bdc0468907000003b4684601b50298f7
:102ed000fef732fe019b9e4602b00cbc7047c04616
:020000040000fa
:102ee000030070b505000020904207d3032018406e
:102ef000411e88415b1b9b08c01870bd1c78002ccc
:102f000007d00c70013301300131ede700260e557a
:102f100001345e78a642f9dc091900190233e3e7af
:020000040000fa
:102f200030b401256d054c00e54215d85c00e54242
:102f300012d80c001c436400044314430cd005d287
:102f400082428b418041404230bc7047904299415f
:0e2f50008041404230bc7047002030bc7047ca
:020000040000fa
:102f5e0030b401256d054c00e54215d85c00e54204
:102f6e0012d80c001c436400044314430cd005d249
:102f7e00904299418041404230bc704782428b4121
:0e2f8e008041404230bc7047002030bc70478c
:020000040000fa
:102f9c000fb410b582b004ab04cb019380210a4c62
:102fac0049002000fff7a4fc200000f047fa0100c4
:102fbc002000fff74ffb00f011fb0028fbd102b003
:0c2fcc0010bc08bc04b018470004002032
:020000040000fa
:102fd8001c2101231b04984201d3000c10391b0a41
:102fe800984201d3000a08391b09984201d3000905
:102ff800043902a2105c40187047c046040302025c
:0c300800010101010000000000000000b8
:020000040000fa
:1030140010b50b480168002905d14368002b02d183
:1030240000f02df810bd04008368064a9bb20c34ee
:103034009b009b5842682000984780002018e9e7cd
:083044002c150000ec34000023
:020000040000fa
:10304c0010b50400812906dc00207f2912dd1368ed
:10305c000721073305e0002083290bd113687c3945
:10306c0007338b4319000120083111601a685b6823
:06307c002260636010bd3c
:020000040000fa
:02308200704795
:020000040000fa
:1030840010b50b4b06225a60fff704fcfff70ef84d
:10309400fff7a2fd00f09afafff71afd00f0def840
:1030a400fff7aef8fff754fefff788fc10bdc046eb
:0430b4000040004197
:020000040000fa
:1030b80010b50020fff7e2ff00f03ef900f05efadd
:1030c80000f0f2f800f0b0f900f0a8fa0448fff7b1
:1030d80061fffcf7fdfffff753f9fff791f9f8e7f8
:0430e80000200000c4
:020000040000fa
:1030ec000200002070b50a4b4400e55c002d02d1b3
:1030fc001b19587870bd116801300e78c0b2ae4201
:10310c0003d11b190131587811600a28ebd9f1e76a
:04311c00c0340000bb
:020000040000fa
:10312000f4464a1805d200f02ef801d5c017400821
:10313000604701235b05d34206d200f024f801d595
:103140000120c0074042604701d10042f5d0d017ae
:04315000400870477c
:020000040000fa
:1031540070b4012676054c005d00e6420cd8ee42c0
:103164000ad825430543154303d0994204d190421c
:0e31740002d1012070bc7047002070bc704773
:020000040000fa
:103182004a0010d2520d03231b02ff33d21a0ad473
:1031920052421f3209d4400dc90208430123db0702
:0e31a2001843d040704700207047d017704788
:020000040000fa
:1031b00030b5094b44002418a4001b191b7adbb25c
:1031c000834200d030bd044b44002518ad00e950c7
:0c31d0005b195a60f6e7c04600050020bd
:020000040000fa
:1031dc00094b5b8b5b070dd0074b80221a76793a33
:1031ec005a831b7e5b0705d5034b04211a8d1a7e6f
:0c31fc000a42fbd17047c046001400429c
:020000040000fa
:10320800094b5b8b5b070dd0074b80221a76793a06
:103218005a831b7e5b0705d5034b04211a8d1a7e42
:0c3228000a42fbd17047c046000c004277
:020000040000fa
:1032340070b505690400954200d91500002d0bd026
:103244002a00606900f05af922696369521b2261fd
:0a32540000225b1963611a7070bd5f
:020000040000fa
:02325e007047b7
:020000040000fa
:10326000084b00225a601a00d369002bfcd1054b91
:1032700000221a730e321a601a00d369002bfcd197
:083280007047c046000800423f
:020000040000fa
:1032880010b5074b987bc0b23b229a73054b1b685d
:10329800002b03d0034b59681b68984710bdc046e4
:0832a800002c00428c060020fe
:020000040000fa
:1032b00010b50748002100f0a3f900f031f800f044
:1032c00087f800f091f803480221fff721fd10bdb7
:0832d00031360000a0060020c9
:020000040000fa
:1032d800f80000006403000084040000f604000005
:1032e80050050000e4050000f40500001a0600007f
:0832f80036060000520600003a
:020000040000fa
:10330000064b1b689b0707d4044a136802210b4332
:103310001360d369002bfcd17047c04600140042f3
:020000040000fa
:10332000064b1b689b0707d4044a136802210b4312
:103330001360d369002bfcd17047c046000c0042db
:020000040000fa
:1033400010b50548002100f061f900f059f8034b71
:103350008022d2009a6110bd19360000004400415d
:020000040000fa
:10336000286e696c29002500494e4600696e66008a
:0f3370004e414e006e616e00286e756c6c290028
:020000040000fa
:10338000002310b5934206d103201840421e9041fd
:0e3390009b08c01810bdc45ccc540133f2e79a
:020000040000fa
:1033a000044a516880235b020b435360d369002bae
:0833b000fcd17047001400423b
:020000040000fa
:1033b800044a516880239b020b435360d369002b56
:0833c800fcd170470014004223
:020000040000fa
:1033d000044a516880235b020b435360d369002b7e
:0833e000fcd17047000c004213
:020000040000fa
:1033e800044a516880239b020b435360d369002b26
:0833f800fcd17047000c0042fb
:020000040000fa
:10340000044a138802210b431380d37b5bb2002b49
:08341000fbdb7047002c0042b9
:020000040000fa
:1034180010b504480121fff759f900f0e7f8002832
:08342800fbd110bdc4360020e9
:020000040000fa
:1034300010b5044900220e20fff7bafe0e2000f05e
:0834400091f810bdd934000021
:020000040000fa
:103448000378002b06d003005a780133002afbd1f9
:08345800181a70470020fce780
:020000040000fa
:1034600013b50400019201aafdf7ecfd6368db06c9
:0834700001d50120404216bd08
:020000040000fa
:10347800d0400b00d1409c46203ad34018435242da
:083488006346934018437047ae
:020000040000fa
:103490009140030090409c46203a93401943524289
:0834a0006346d3401943704755
:020000040000fa
:1034a80010b5002903d1fff793fd203002e0080092
:0834b800fff78efd10bdc046b8
:020000040000fa
:1034c00068076c094c836a9074a07ac00080688891
:0634d00000846c82008103
:020000040000fa
:1034d80010b50e2000f04af8014b01221a7010bdf9
:0434e800b306002007
:020000040000fa
:1034ec005135000081330000493600004936000098
:0434fc00e12e0000bd
:020000040000fa
:1035000010b5002a05d00023cc5cc454013393428b
:04351000fad110bd1f
:020000040000fa
:10351400002a06d00300c9b212181970013393426d
:04352400fbd1704720
:020000040000fa
:1035280003000a7818001a7001310133002af8d113
:043538007047c046d2
:020000040000fa
:10353c0002b4714649084900095c49008e4402bc3a
:04354c007047c046be
:020000040000fa
:103550008a18914201d10020704700230b7001317d
:02356000f7e78b
:020000040000fa
:1035640001238340014ad3607047c04600180040dd
:020000040000fa
:1035740001238340014a93607047c046001800400d
:020000040000fa
:1035840010b5fff7bbfefff709fffff713ff10bdf0
:020000040000fa
:1035940010b5fef78ff9029a039bfdf7e1fe10bd0b
:020000040000fa
:1035a400f0b40125ed076b40004c20476b1300007d
:020000040000fa
:0e35b4000300413b192b01d820231843704718
:020000040000fa
:0e35c2000300613b192b01d85f2318407047ae
:020000040000fa
:0c35d000014b82225a607047004000410d
:020000040000fa
:0c35dc0010b500230022fef77bf810bda4
:020000040000fa
:0c35e800014b187dc0b270471006002097
:020000040000fa
:0c35f400014b187dc0b27047400600205b
:020000040000fa
:0c360000014b58629962704740060020a0
:020000040000fa
:0c360c00014b1860596070478c060020cc
:020000040000fa
:0c361800014b01221a707047ae06002022
:020000040000fa
:0c362400014b80229a6170470044004175
:020000040000fa
:0c363000014b01221a707047b106002007
:020000040000fa
:0c363c0010b50400fff772ff200010bd65
:020000040000fa
:0436480000207047a7
:020000040000fa
:04364c007047c046bd
:020000040000fa
:0200000400807a
:0440000077c700d8a6
:020000040000fa
:0200000400807a
:044004005c00ffff5e
:00000001FF
